:03000000021AEAF7
:0C1AEA00787FE4F6D8FD758164021B31A2
:1000030072656400677265656E00626C7565007782
:10001300686974650062616C636B0079656C6C6F11
:1000230077006772617930006772617931006772B6
:100033006179320077696474682031007769647488
:1000430068203200776964746820330077696474C8
:100053006820340077696474682035006C656E67C6
:1000630074682032006C656E6774682035006C65B7
:100073006E677468203800636C6561722073637205
:1000830065656E00F800001FFFE0FFFF000007E05A
:10009300EF7D8410420801420000000000000000D0
:1000A300000000000000000000000000000000004D
:1000B300000000000000000000000000000000003D
:1000C300000000000000000000000000000000002D
:1000D300000000000000000000000000000000001D
:1000E300000000000000000000000000000000000D
:1000F30000000000000000000000000000000000FD
:1001030000000000000000000000000000000000EC
:1001130000000000000000000000000000000000DC
:1001230000001808C80808000000000000000000D4
:10013300007F6060606060606060E06020000000DD
:1001430000000000000000000000000000000000AC
:100153000018181810101000000000000000000024
:10016300000000000000000808080C0C0C00000050
:10017300000000000000000000000000000000007C
:10018300006C3810007CC6701CC67C0000000000A8
:100193000010386C00780C7CCCCC7600000000009A
:1001A30000000000007CC670C0C67C000000000098
:1001B30000000000006C967CD0D66C0000000000AC
:1001C30000000000007CC60606C67C00000000009C
:1001D3000000386CC6C6FEC6C66C380000000000BE
:1001E300000000001038286C44C6C6000000000060
:1001F30000000000007CC606FEC67C000000000074
:100203000000000000DC666666F60606663C000039
:1002130000006C38F80C7EC6C6C67C0000000000E7
:1002230000000E1B18181818181818D870000000B2
:1002330000000000FE860C180C0606C67C000000B9
:100243000076DC0000780C7CCCCC7600000000004B
:100253000076DC00007CC60606C67C0000000000B9
:100263000076DC0000DC666666666600000000005F
:10027300000000000076999F98996F00000000002D
:10028300000000000000000000000C060600000053
:100293000000000000000000003C66663C00000017
:1002A300000000000000000000000000000000004B
:1002B3000000183C3C3C181800181800000000000F
:1002C30000C6C6C644000000000000000000000095
:1002D30000006C6CFE6C6C6CFE6C6C00000000002B
:1002E30018187CC6C2C07C0686C67C18180000009D
:1002F30000000000C3C60C183063C30000000000F8
:100303000000386C6C3876DCCCCC76000000000042
:1003130000303030600000000000000000000000EA
:10032300000018306060606060301800000000005A
:100333000000180C06060606060C18000000000054
:10034300000000006C38FE386C0000000000000064
:100353000000001818187E1818180000000000008C
:100363000000000000000000181818300000000012
:10037300000000000000FE0000000000000000007C
:10038300000000000000000000181800000000003A
:10039300000002060C183060C0800000000000005E
:1003A30000007CC6CEDEF6E6C6C67C000000000078
:1003B300000018387818181818187E00000000007C
:1003C30000007CC6060C183060C6FE00000000006A
:1003D30000007CC606063C0606C67C000000000042
:1003E30000000C1C3C6CCCFE0C0C1E00000000003A
:1003F3000000FEC0C0C0FC0606C67C000000000072
:1004030000003860C0C0FCC6C6C67C000000000007
:100413000000FEC6060C183030303000000000002B
:1004230000007CC6C6C67CC6C6C67C0000000000B1
:1004330000007CC6C6C67E06060C780000000000DD
:100443000000001818000000181800000000000049
:100453000000001818000000181830000000000009
:100463000000060C18306030180C06000000000075
:1004730000000000007E00007E000000000000007D
:1004830000006030180C060C1830600000000000FB
:1004930000007CC6C60C18180018180000000000E5
:1004A30000007CC6C6DEDEDEDCC07C00000000008F
:1004B300000010386CC6C6FEC6C6C60000000000A9
:1004C3000000FC6666667C666666FC000000000051
:1004D30000003C66C2C0C0C0C2663C000000000011
:1004E3000000F86C66666666666CF8000000000043
:1004F3000000FE66626878686266FE000000000025
:100503000000FE66626878686060F000000000002A
:1005130000003C66C2C0C0DEC6663A0000000000B0
:100523000000C6C6C6C6FEC6C6C6C600000000009A
:1005330000003C181818181818183C000000000098
:1005430000001E0C0C0C0C0CCCCC7800000000003E
:100553000000E6666C6C786C6C66E60000000000D8
:100563000000F060606060606266FE0000000000F2
:100573000000C6EEFED6C6C6C6C6C6000000000012
:100583000000C6E6F6FEDECEC6C6C60000000000CA
:100593000000386CC6C6C6C6C66C38000000000032
:1005A3000000FC6666667C606060F000000000008E
:1005B30000007CC6C6C6D6DE7C0C0E000000000020
:1005C3000000FC6666667C6C6666E6000000000060
:1005D30000007CC6C660380CC6C67C000000000064
:1005E30000007E5A1818181818183C000000000064
:1005F3000000C6C6C6C6C6C6C6C67C00000000004C
:100603000000C6C6C6C6C6C66C381000000000008F
:100613000000C6C6C6C6C6D6FEEEC6000000000071
:100623000000C6C6C66C386CC6C6C6000000000013
:100633000000C6C6C66C383838387C00000000009D
:100643000000FEC68C183060C2C6FE000000000029
:1006530000003C303030303030303C0000000000CF
:10066300000080C0E070381C0E060200000000008D
:1006730000003C0C0C0C0C0C0C0C3C0000000000AB
:1006830010386CC6000000000000000000000000ED
:10069300000000000000000000000000FE00000059
:1006A30000303018000000000000000000000000CF
:1006B3000000000000780C7CCCCC76000000000029
:1006C3000000E06060786C666666DC000000000095
:1006D30000000000007CC6C0C0C67C000000000013
:1006E30000001C0C0C3C6CCCCCCC76000000000051
:1006F30000000000007CC6FEC0C67C0000000000B5
:1007030000001C3632307C303030780000000000AE
:10071300000000000076CCCCCC7C0CCC7800000030
:100723000000E060606C76666666E600000000002C
:10073300000018180038181818183C0000000000B2
:1007430000000606000E0606060666663C0000006C
:100753000000E06060666C786C66E60000000000F4
:10076300000038181818181818183C00000000006A
:10077300000000000044FED6D6D6D60000000000DC
:100783000000000000DC666666666600000000008C
:1007930000000000007CC6C6C6C67C000000000046
:1007A3000000000000DC6666667C6060F00000000C
:1007B300000000000076CCCCCC7C0C0C1E000000AA
:1007C3000000000000DC76666060F00000000000BE
:1007D30000000000007CC6701CC67C000000000006
:1007E3000000103030FC303030361C0000000000B8
:1007F3000000000000CCCCCCCCCC76000000000084
:100803000000000000C6C6C66C38100000000000DF
:100813000000000000C6C6C6D6FE6C000000000043
:100823000000000000C66C38386CC60000000000F1
:100833000000000000C6C6C6C67E060C7800000095
:100843000000000000FECC183066FE00000000002F
:1008530000000E181818701818180E000000000079
:1008630000001818181800181818180000000000C5
:100873000000701818180E181818700000000000F7
:10088300000076DC00000000000000000000000013
:100893000000000000000000000000000000000055
:1008A3000000000000000000000000000000000045
:1008B3000000000000000000000000000000000035
:1008C3000000000000000000000000000000000025
:101EE50002610001024B000A024F000A0252000083
:101EF5000256000402630001025400010248000575
:1017BD00E55725E0FFE55633FE74872FF58274005B
:0C17CD003EF583E493F54D740193F54E56
:1017D900E4B54E0CE54DB4F8077A0079031216808A
:1017E900E54EB4E00CE54DB407077A007907121607
:1017F90080E54E641F454D700F7BFF7A00790D7DA2
:1018090073FC7F0AFE12168AE54EB4FF0EE54DB44D
:10181900FF097BFF7A007912121682E54E454D7059
:101829000F7BFF7A0079187D73FC7F0AFE12168AF6
:10183900E54EB4E00EE54DB4FF097BFF7A00791E51
:10184900121682E54EB47D0EE54DB4EF097BFF7AA1
:10185900007925121682E54EB4100EE54DB48409BF
:101869007BFF7A00792B121682E54EB4080EE54DFE
:0D187900B442097BFF7A00793112168222F9
:041E7C007FC87E009D
:101E8000E4FDFCC3ED9FEC9E5015E4FBFA0BBB0098
:0F1E9000010AEB646D4A70F50DBD00010C80E492
:011E9F002220
:101EC3007E08EED39400748094804015EF30E704CD
:101ED300D2958002C295C297D297EF25E0FF1E806C
:011EE300E11D
:011EE40022DB
:0A1F8C00C293C292121EC3D2932228
:071F6A007F2A121F8CE4FF27
:0C1F7100E4F547C293D292121EC3D29333
:011F7D002241
:041F3D00AD07AC063A
:101F4100E4F53FC293D292AF04121EC3AF05121E35
:031F5100C3D29365
:011F5400226A
:0E1F7E00C2B37F647E00121E80D2B3021E80AA
:1014CF00121F7E7F11121F8C7F787E00121E807F6D
:1014DF00B1121F8C7F01121F717F2C121F717F2D74
:1014EF00121F717FB2121F8C7F01121F717F2C127E
:1014FF001F717F2D121F717FB3121F8C7F01121F5F
:10150F00717F2C121F717F2D121F717F01121F719E
:10151F007F2C121F717F2D121F717FB4121F8C7FB2
:10152F0007121F717FC0121F8C7FA2121F717F02C3
:10153F00121F717F84121F717FC1121F8C7FC51202
:10154F001F717FC2121F8C7F0A121F71E4FF121FBF
:10155F00717FC3121F8C7F8A121F717F2A121F7116
:10156F007FC4121F8C7F8A121F717FEE121F717F33
:10157F00C5121F8C7F0E121F717F36121F8C7FC8F2
:10158F00121F717FE0121F8C7F0F121F717F1A12B3
:10159F001F717F0F121F717F18121F717F2F121F64
:1015AF00717F28121F717F20121F717F22121F71EE
:1015BF007F1F121F717F1B121F717F23121F717FDD
:1015CF0037121F71E4FF121F717F07121F717F0205
:1015DF00121F717F10121F717FE1121F8C7F0F126C
:1015EF001F717F1B121F717F0F121F717F17121F29
:1015FF00717F33121F717F2C121F717F29121F7180
:10160F007F2E121F717F30121F717F30121F717F5B
:10161F0039121F717F3F121F71E4FF121F717F0775
:10162F00121F717F03121F717F10121F71121F6A19
:10163F007F02121F71E4FF121F717F82121F717FD1
:10164F002B121F6C7F03121F71E4FF121F717F8318
:10165F00121F717FF0121F8C7F01121F717FF61204
:10166F001F6C7F3A121F8C7F05121F717F29021F7B
:01167F008CDE
:101DC8008F82121F6AAF82EF2402FF121F71E4FF95
:101DD800121F71EB2402FF121F717F2B121F6CED73
:101DE8002403FF121F71E4FF121F71E5462403FF4D
:081DF800121F717F2C021F8CE9
:101CBB00D3E54C9400E54B648094805005E4F54BE0
:101CCB00F54CC3E54C9480E54B64809480400675DD
:101CDB004B00754C80D3E5509400E54F64809480A5
:101CEB005005E4F54FF550C3E5509480E54F648003
:0B1CFB0094804006754F007550802259
:051EA000FEAD50AC4F47
:101EA5008A3D8B3EEF2401FBE43EFAED2401F54625
:0E1EB500E43CF545121DC8AF3EAE3D021F3D98
:041D8C008E088F0925
:101D900075450075467F7B7F7A00E4FDFCFFFE12EF
:101DA0001DC8E4FBEBC39480748094805019E4FA5E
:101DB000EAC3948074809480500AAF09AE08121F61
:071DC0003D0A80EC0B80DD01
:011DC70022F9
:0C1886008E088F098C0A8D0B8A0C8B0DCC
:10189200850810850911850A12850B13D3E50B946F
:1018A20000E50A94004061854F0E85500F054CE516
:1018B2004C7002054B851008851109D3E509940087
:1018C200E508648094804036E50F150F7002150E0E
:1018D200121CBBE54C24FFFFE54B34FFFEE50F2550
:1018E20055CDE50E3554CD2401CD3400FCAB0DAA07
:1018F2000C121EA5E509150970C1150880BDE50B7E
:10190200150B7098150A8094C3E54C9513F54CE5B8
:101912004B9512F54BC3E5509511F550E54F9510D7
:08192200F54F851254851355A1
:01192A00229A
:0C192B008E088F098C0A8D0B8A0C8B0D26
:10193700850810850911850A12850B13D3E50B94C9
:1019470000E50A94004055854F0E85500F054CE57C
:101957004C7002054B851008851109D3E5099400E1
:10196700E50864809480402A050FE50F7002050E94
:10197700121CBBE54C24FFFFE54B34FFFEAB0DAA61
:101987000CAD0FAC0E121EA5E509150970CD150893
:1019970080C9E50B150B70A4150A80A0C3E54C950B
:1019A70013F54CE54B9512F54BE5112550F550E530
:0B19B70010354FF54F85125485135575
:0119C2002202
:0C19C3008E088F098C0A8D0B8A0C8B0D8E
:1019CF00850810850911850A12850B13D3E50B9431
:1019DF0000E50A94004050854B0E854C0F0550E5ED
:1019EF00507002054F851008851109D3E509940041
:1019FF00E508648094804025E50F150F7002150EE1
:101A0F00121CBBE50F2555FFE50E3554AB0DAA0C87
:101A1F00121EA0E509150970D2150880CEE50B1529
:101A2F000B70A9150A80A5C3E5509513F550E54F26
:101A3F009512F54FC3E54C9511F54CE54B9510F507
:071A4F004B8512548513556D
:011A5600226D
:0C1A57008E088F098C0A8D0B8A0C8B0DF9
:101A6300850810850911850A12850B13D3E50B949C
:101A730000E50A94004050854B0E854C0F0550E558
:101A8300507002054F851008851109D3E5099400AC
:101A9300E508648094804025050FE50F7002050E6C
:101AA300121CBBE50F24FFFFE50E34FFAB0DAA0CA0
:101AB300121EA0E509150970D2150880CEE50B1595
:101AC3000B70A9150A80A5C3E5509513F550E54F92
:101AD3009512F54FE511254CF54CE510354BF54BBB
:061AE30085125485135525
:011AE90022DA
:101BF200750E00750F0D7B417A007D737C007F05A9
:021C02007E0062
:0C1C04008E088F098C0A8D0B8A0C8B0D4A
:101C1000E509250DCFE508350CCF24FFFBEF34FF98
:101C2000FAE50B250FCFE50A350ECF24FFF546EF79
:101C300034FFF545AF09121DC8AB09E509250DFFB5
:101C4000E508350CFEEBC39FE49E5020AA0BE50B84
:101C5000250FFFE50A350EFEEAC39FE49E500A7485
:0C1C6000FFFFFE121F3D0A80E50B80CF45
:011C6C002255
:041B7600AF64AE6347
:101B7A008E088F09E50964014508700F7BFF7A001A
:101B8A0079377D73FC7F0AFE12168AE509640245DD
:101B9A0008700F7BFF7A00793F7D73FC7F0AFE1283
:101BAA00168AE50964034508700F7BFF7A007947B6
:101BBA007D73FC7F0AFE12168AE5096404450870E3
:101BCA000F7BFF7A00794F7D73FC7F0AFE12168A1B
:101BDA00E50964054508700F7BFF7A0079577D7324
:081BEA00FC7F0AFE12168A229C
:041C6D00AF49AE4885
:101C71008E088F09E50964024508700F7BFF7A0021
:101C8100795F7D73FC7F0AFE12168AE509640545BA
:101C910008700F7BFF7A0079687D73FC7F0AFE1262
:101CA100168AE50964084508700F7BFF7A0079718F
:0A1CB1007D73FC7F0AFE12168A22E2
:0A1680007BFF7D737C007F0A7E0073
:0E168A008E0A8F0B8C0C8D0D8B0E8A0F891023
:10169800E4F511F512AB0EAA0FA910121F55C3E5F8
:1016A800129FE5119E40030217BCAB0EAA0FA910AA
:1016B8008512828511831212E1FFC394A17480946C
:1016C8008040068F3BE4F53C22AB0EAA0FA910859B
:1016D80012828511831212E1FFE4FCFDFE7B10FAF1
:1016E800F9F81213448F1A8E198D188C17E4FFFE1F
:1016F800E51A2FFDE5193EFC74A22DF58274003C15
:10170800F583E493FD741B2FF8A6050FBF00010EA7
:10171800EF64104E70DAE4F515F516E4F513F514D8
:10172800AE13AF147C007D0812130E741B2516F837
:10173800E6FB3395E0FA7E007480A805088006CEA3
:10174800A2E713CE13D8F8FFEE5AFEEF5B4E602DDA
:10175800E50B2514FDE50A3513FCAE11E5127803F7
:10176800C333CE33CED8F92DFFEC3EFEE516250D5A
:10177800FDE515350CFC7B007AF8121EA50514E56D
:101788001470020513C39408E51364809480409094
:101798000516E51670020515C39410E515648094C6
:1017A8008050030217230512E512600302169D05F7
:0417B8001102169D67
:0117BC00220A
:101F0600D3EF9400EE940040147D6D7C00ED1D70BF
:0D1F1600011CED4C70F7EF1F70E61E80E31C
:011F2300229B
:101E560075985053890F438920AB07AA06E4F9F811
:101E66007F807E70FDFC121D06EFF404F58D858DD6
:061E76008BC2ABD28E22EC
:081F96008F993099FDC29922D8
:061F2400C2B77F0A7E0037
:101F2A00E4FDFCC3ED9FEC9E5008000DBD00010CC2
:021F3A0080F134
:011F3C002282
:021E0000AB072E
:101E0200E4FAEAD3940774809480501DEB30E00426
:101E1200D2B58002C2B5EBC313FB0000121F24D25D
:0B1E2200B77F03121F2A0A80D9D2B537
:011E2D002292
:021D4A00AB07E5
:101D4C007901E4F509FAEAD3940774809480502B56
:101D5C00EB30E004D2B58002C2B5EBC313FB00003C
:101D6C00121F2430B405E92509F509E925E0F9D25B
:0F1D7C00B77F037E00121F2A0A80CBD2B5AF09B2
:011D8B002235
:101E2E00C2B6E4F508C3E508940974809480501591
:101E3E00E50890009993FF121D4A74582508F8A6DC
:071E4E0007050880E0D2B691
:011E5500226A
:1010A3001214CFD2B27FF47E01121F067F807E25F9
:1010B300121E5674FFFFFE121D8C1217BD121E7CEA
:1010C300750E00750F0D7B327A007D737C007F0AED
:1010D300121C04121B76121BF2121C6D750E007586
:1010E3000F0D7B46121BFA121E2EE55B64EF700F89
:1010F300AB4EAA4DAD64AC63AF49AE48121886E55A
:101103005B64BF700FAB4EAA4DAD64AC63AF49AE29
:101113004812192BE55B647F7012121CBBAB4EAAFD
:101123004DAD64AC63AF49AE481219C3E55B64DFF0
:101133007012121CBBAB4EAA4DAD64AC63AF49AE8B
:1011430048121A57E55C64EF703DE553455270371A
:10115300F5527553010557E55770020556C39408B8
:10116300E55664809480400675560075570812173B
:10117300BD121E7C750E00750F0D7B327A007D73D8
:101183007C007F0A121C04E55C64BF703EE5534596
:10119300527038F552755301E557155770021556BD
:1011A300D3E5579400E556648094805005E4F556E2
:1011B300F5571217BD121E7C750E00750F0D7B328D
:1011C3007A007D737C007F0A121C04E55C64DF7087
:1011D30021E5534552701BF5527553017BFF7A008D
:1011E300797A7D73FC7F0AFE12168A74FFFFFE1262
:1011F3001D8CE55C64F77028E55345527022F55267
:101203007553010564E56470020563C39405E563E2
:1012130094004006756300756405121B76121BF279
:10122300E55C64FD702AE55345527024F55275530D
:1012330001E564156470021563D3E5649401E56305
:1012430094005006756300756401121B76121BF23D
:10125300E55C64FB7037E55345527031F5527553C5
:101263000174032549F549E43548F548C3E5499434
:1012730008E5486480948040067548007549081263
:101283001C6D750E00750F0D7B46121BFAE55C6431
:10129300FE7038E55345527032F55275530174FDB3
:1012A3002549F54974FF3548F548D3E5499402E5E6
:1012B30048648094805006754800754902121C6D7D
:1012C300750E00750F0D7B46121BFAE55CF4700476
:0E12D300F552F5537F467E00121F060210EA08
:101AF6000210A3E493A3F8E493A34003F68001F253
:101B060008DFF48029E493A3F85407240CC8C333F0
:101B1600C4540F4420C8834004F456800146F6DFBF
:101B2600E4800B0102040810204080901EE5E47E4C
:101B3600019360BCA3FF543F30E509541FFEE493B4
:101B4600A360010ECF54C025E060A840B8E493A37B
:101B5600FAE493A3F8E493A3C8C582C8CAC583CAA6
:101B6600F0A3C8C582C8CAC583CADFE9DEE780BE5E
:011F050000DB
:1012E100BB010CE58229F582E5833AF583E02250C2
:1012F10006E92582F8E622BBFE06E92582F8E2220C
:0D130100E58229F582E5833AF583E4932225
:10130E00C2D5EC30E709B2D5E4C39DFDE49CFCEEFA
:10131E0030E715B2D5E4C39FFFE49EFE1213ACC3B3
:10132E00E49DFDE49CFC80031213AC30D507C3E4AE
:06133E009FFFE49EFE2269
:10134400E88FF0A4CC8BF0A42CFCE98EF0A42CFC48
:101354008AF0EDA42CFCEA8EF0A4CDA8F08BF0A4C6
:101364002DCC3825F0FDE98FF0A42CCD35F0FCEB25
:101374008EF0A4FEA9F0EB8FF0A4CFC5F02ECD39EA
:0F138400FEE43CFCEAA42DCE35F0FDE43CFC2257
:101D0600C2D5E830E70FB2D5E4C39BFBE49AFAE408
:101D160099F9E498F8EC30E717B2D5121D3C121485
:101D26003DE4C39BFBE49AFAE499F9E498F880034E
:101D360012143D30D50DE4C39FFFE49EFEE49DFDE5
:041D4600E49CFC22FB
:101F5500E4FFFE121393600C0FEF70010E09E97098
:051F6500F20A80EF22EA
:10139300BB010689828A83E0225002E722BBFE0258
:0913A300E32289828A83E493228B
:1013AC00BC000BBE0029EF8DF084FFADF022E4CC25
:1013BC00F875F008EF2FFFEE33FEEC33FCEE9DECEE
:1013CC00984005FCEE9DFE0FD5F0E9E4CEFD22ED34
:1013DC00F8F5F0EE8420D21CFEADF075F008EF2F7E
:1013EC00FFED33FD4007985006D5F0F222C398FD6F
:0513FC000FD5F0EA220C
:1014010075F008758200EF2FFFEE33FECD33CDCCA2
:1014110033CCC58233C5829BED9AEC99E582984025
:101421000CF582EE9BFEED9AFDEC99FC0FD5F0D602
:10143100E4CEFBE4CDFAE4CCF9A88222B800C1B92C
:101441000059BA002DEC8BF084CFCECDFCE5F0CB6A
:10145100F97818EF2FFFEE33FEED33FDEC33FCEBA3
:1014610033FB10D703994004EB99FB0FD8E5E4F95E
:10147100FA227818EF2FFFEE33FEED33FDEC33FC4B
:10148100C933C910D7059BE99A4007EC9BFCE99A3F
:10149100F90FD8E0E4C9FAE4CCFB2275F010EF2F84
:1014A100FFEE33FEED33FDCC33CCC833C810D70784
:1014B1009BEC9AE899400AED9BFDEC9AFCE899F8BF
:0E14C1000FD5F0DAE4CDFBE4CCFAE4C8F92252
:00000001FF
